{
	"contracts/saygm.sol": {
		"SayGM": {
			"abi": [
				{
					"anonymous": false,
					"inputs": [
						{
							"indexed": true,
							"internalType": "address",
							"name": "previousOwner",
							"type": "address"
						},
						{
							"indexed": true,
							"internalType": "address",
							"name": "newOwner",
							"type": "address"
						}
					],
					"name": "OwnershipTransferred",
					"type": "event"
				},
				{
					"inputs": [
						{
							"internalType": "uint256",
							"name": "",
							"type": "uint256"
						}
					],
					"name": "answers",
					"outputs": [
						{
							"internalType": "address",
							"name": "from",
							"type": "address"
						},
						{
							"internalType": "string",
							"name": "answer",
							"type": "string"
						}
					],
					"stateMutability": "view",
					"type": "function"
				},
				{
					"inputs": [],
					"name": "owner",
					"outputs": [
						{
							"internalType": "address",
							"name": "",
							"type": "address"
						}
					],
					"stateMutability": "view",
					"type": "function"
				},
				{
					"inputs": [],
					"name": "prompt",
					"outputs": [
						{
							"internalType": "string",
							"name": "",
							"type": "string"
						}
					],
					"stateMutability": "view",
					"type": "function"
				},
				{
					"inputs": [],
					"name": "renounceOwnership",
					"outputs": [],
					"stateMutability": "nonpayable",
					"type": "function"
				},
				{
					"inputs": [
						{
							"internalType": "address",
							"name": "newOwner",
							"type": "address"
						}
					],
					"name": "transferOwnership",
					"outputs": [],
					"stateMutability": "nonpayable",
					"type": "function"
				}
			],
			"devdoc": {
				"kind": "dev",
				"methods": {
					"owner()": {
						"details": "Returns the address of the current owner."
					},
					"renounceOwnership()": {
						"details": "Leaves the contract without owner. It will not be possible to call `onlyOwner` functions anymore. Can only be called by the current owner. NOTE: Renouncing ownership will leave the contract without an owner, thereby removing any functionality that is only available to the owner."
					},
					"transferOwnership(address)": {
						"details": "Transfers ownership of the contract to a new account (`newOwner`). Can only be called by the current owner."
					}
				},
				"version": 1
			},
			"evm": {
				"assembly": "    /* \"contracts/saygm.sol\":122:309  contract SayGM is Ownable {\r... */\n  mstore(0x40, 0x80)\n    /* \"contracts/saygm.sol\":155:186  string public prompt = \"Say GM\" */\n  mload(0x40)\n  dup1\n  0x40\n  add\n  0x40\n  mstore\n  dup1\n  0x06\n  dup2\n  mstore\n  0x20\n  add\n  0x53617920474d0000000000000000000000000000000000000000000000000000\n  dup2\n  mstore\n  pop\n  0x01\n  swap1\n  dup1\n  mload\n  swap1\n  0x20\n  add\n  swap1\n  tag_1\n  swap3\n  swap2\n  swap1\n  tag_2\n  jump\t// in\ntag_1:\n  pop\n    /* \"contracts/saygm.sol\":122:309  contract SayGM is Ownable {\r... */\n  callvalue\n  dup1\n  iszero\n  tag_3\n  jumpi\n  0x00\n  dup1\n  revert\ntag_3:\n  pop\n    /* \"@openzeppelin/contracts/access/Ownable.sol\":936:968  _transferOwnership(_msgSender()) */\n  tag_6\n    /* \"@openzeppelin/contracts/access/Ownable.sol\":955:967  _msgSender() */\n  tag_7\n    /* \"@openzeppelin/contracts/access/Ownable.sol\":955:965  _msgSender */\n  shl(0x20, tag_8)\n    /* \"@openzeppelin/contracts/access/Ownable.sol\":955:967  _msgSender() */\n  0x20\n  shr\n  jump\t// in\ntag_7:\n    /* \"@openzeppelin/contracts/access/Ownable.sol\":936:954  _transferOwnership */\n  shl(0x20, tag_9)\n    /* \"@openzeppelin/contracts/access/Ownable.sol\":936:968  _transferOwnership(_msgSender()) */\n  0x20\n  shr\n  jump\t// in\ntag_6:\n    /* \"contracts/saygm.sol\":122:309  contract SayGM is Ownable {\r... */\n  jump(tag_10)\n    /* \"@openzeppelin/contracts/utils/Context.sol\":640:736  function _msgSender() internal view virtual returns (address) {... */\ntag_8:\n    /* \"@openzeppelin/contracts/utils/Context.sol\":693:700  address */\n  0x00\n    /* \"@openzeppelin/contracts/utils/Context.sol\":719:729  msg.sender */\n  caller\n    /* \"@openzeppelin/contracts/utils/Context.sol\":712:729  return msg.sender */\n  swap1\n  pop\n    /* \"@openzeppelin/contracts/utils/Context.sol\":640:736  function _msgSender() internal view virtual returns (address) {... */\n  swap1\n  jump\t// out\n    /* \"@openzeppelin/contracts/access/Ownable.sol\":2433:2620  function _transferOwnership(address newOwner) internal virtual {... */\ntag_9:\n    /* \"@openzeppelin/contracts/access/Ownable.sol\":2506:2522  address oldOwner */\n  0x00\n    /* \"@openzeppelin/contracts/access/Ownable.sol\":2525:2531  _owner */\n  dup1\n  0x00\n  swap1\n  sload\n  swap1\n  0x0100\n  exp\n  swap1\n  div\n  0xffffffffffffffffffffffffffffffffffffffff\n  and\n    /* \"@openzeppelin/contracts/access/Ownable.sol\":2506:2531  address oldOwner = _owner */\n  swap1\n  pop\n    /* \"@openzeppelin/contracts/access/Ownable.sol\":2550:2558  newOwner */\n  dup2\n    /* \"@openzeppelin/contracts/access/Ownable.sol\":2541:2547  _owner */\n  0x00\n  dup1\n    /* \"@openzeppelin/contracts/access/Ownable.sol\":2541:2558  _owner = newOwner */\n  0x0100\n  exp\n  dup2\n  sload\n  dup2\n  0xffffffffffffffffffffffffffffffffffffffff\n  mul\n  not\n  and\n  swap1\n  dup4\n  0xffffffffffffffffffffffffffffffffffffffff\n  and\n  mul\n  or\n  swap1\n  sstore\n  pop\n    /* \"@openzeppelin/contracts/access/Ownable.sol\":2604:2612  newOwner */\n  dup2\n    /* \"@openzeppelin/contracts/access/Ownable.sol\":2573:2613  OwnershipTransferred(oldOwner, newOwner) */\n  0xffffffffffffffffffffffffffffffffffffffff\n  and\n    /* \"@openzeppelin/contracts/access/Ownable.sol\":2594:2602  oldOwner */\n  dup2\n    /* \"@openzeppelin/contracts/access/Ownable.sol\":2573:2613  OwnershipTransferred(oldOwner, newOwner) */\n  0xffffffffffffffffffffffffffffffffffffffff\n  and\n  0x8be0079c531659141344cd1fd0a4f28419497f9722a3daafe3b4186f6b6457e0\n  mload(0x40)\n  mload(0x40)\n  dup1\n  swap2\n  sub\n  swap1\n  log3\n    /* \"@openzeppelin/contracts/access/Ownable.sol\":2496:2620  {... */\n  pop\n    /* \"@openzeppelin/contracts/access/Ownable.sol\":2433:2620  function _transferOwnership(address newOwner) internal virtual {... */\n  pop\n  jump\t// out\n    /* \"contracts/saygm.sol\":122:309  contract SayGM is Ownable {\r... */\ntag_2:\n  dup3\n  dup1\n  sload\n  tag_13\n  swap1\n  tag_14\n  jump\t// in\ntag_13:\n  swap1\n  0x00\n  mstore\n  keccak256(0x00, 0x20)\n  swap1\n  0x1f\n  add\n  0x20\n  swap1\n  div\n  dup2\n  add\n  swap3\n  dup3\n  tag_16\n  jumpi\n  0x00\n  dup6\n  sstore\n  jump(tag_15)\ntag_16:\n  dup3\n  0x1f\n  lt\n  tag_17\n  jumpi\n  dup1\n  mload\n  not(0xff)\n  and\n  dup4\n  dup1\n  add\n  or\n  dup6\n  sstore\n  jump(tag_15)\ntag_17:\n  dup3\n  dup1\n  add\n  0x01\n  add\n  dup6\n  sstore\n  dup3\n  iszero\n  tag_15\n  jumpi\n  swap2\n  dup3\n  add\ntag_18:\n  dup3\n  dup2\n  gt\n  iszero\n  tag_19\n  jumpi\n  dup3\n  mload\n  dup3\n  sstore\n  swap2\n  0x20\n  add\n  swap2\n  swap1\n  0x01\n  add\n  swap1\n  jump(tag_18)\ntag_19:\ntag_15:\n  pop\n  swap1\n  pop\n  tag_20\n  swap2\n  swap1\n  tag_21\n  jump\t// in\ntag_20:\n  pop\n  swap1\n  jump\t// out\ntag_21:\ntag_22:\n  dup1\n  dup3\n  gt\n  iszero\n  tag_23\n  jumpi\n  0x00\n  dup2\n  0x00\n  swap1\n  sstore\n  pop\n  0x01\n  add\n  jump(tag_22)\ntag_23:\n  pop\n  swap1\n  jump\t// out\n    /* \"#utility.yul\":7:327   */\ntag_14:\n    /* \"#utility.yul\":51:57   */\n  0x00\n    /* \"#utility.yul\":88:89   */\n  0x02\n    /* \"#utility.yul\":82:86   */\n  dup3\n    /* \"#utility.yul\":78:90   */\n  div\n    /* \"#utility.yul\":68:90   */\n  swap1\n  pop\n    /* \"#utility.yul\":135:136   */\n  0x01\n    /* \"#utility.yul\":129:133   */\n  dup3\n    /* \"#utility.yul\":125:137   */\n  and\n    /* \"#utility.yul\":156:174   */\n  dup1\n    /* \"#utility.yul\":146:227   */\n  tag_26\n  jumpi\n    /* \"#utility.yul\":212:216   */\n  0x7f\n    /* \"#utility.yul\":204:210   */\n  dup3\n    /* \"#utility.yul\":200:217   */\n  and\n    /* \"#utility.yul\":190:217   */\n  swap2\n  pop\n    /* \"#utility.yul\":146:227   */\ntag_26:\n    /* \"#utility.yul\":274:276   */\n  0x20\n    /* \"#utility.yul\":266:272   */\n  dup3\n    /* \"#utility.yul\":263:277   */\n  lt\n    /* \"#utility.yul\":243:261   */\n  dup2\n    /* \"#utility.yul\":240:278   */\n  eq\n    /* \"#utility.yul\":237:321   */\n  iszero\n  tag_27\n  jumpi\n    /* \"#utility.yul\":293:311   */\n  tag_28\n  tag_29\n  jump\t// in\ntag_28:\n    /* \"#utility.yul\":237:321   */\ntag_27:\n    /* \"#utility.yul\":58:327   */\n  pop\n    /* \"#utility.yul\":7:327   */\n  swap2\n  swap1\n  pop\n  jump\t// out\n    /* \"#utility.yul\":333:513   */\ntag_29:\n    /* \"#utility.yul\":381:458   */\n  0x4e487b7100000000000000000000000000000000000000000000000000000000\n    /* \"#utility.yul\":378:379   */\n  0x00\n    /* \"#utility.yul\":371:459   */\n  mstore\n    /* \"#utility.yul\":478:482   */\n  0x22\n    /* \"#utility.yul\":475:476   */\n  0x04\n    /* \"#utility.yul\":468:483   */\n  mstore\n    /* \"#utility.yul\":502:506   */\n  0x24\n    /* \"#utility.yul\":499:500   */\n  0x00\n    /* \"#utility.yul\":492:507   */\n  revert\n    /* \"contracts/saygm.sol\":122:309  contract SayGM is Ownable {\r... */\ntag_10:\n  dataSize(sub_0)\n  dup1\n  dataOffset(sub_0)\n  0x00\n  codecopy\n  0x00\n  return\nstop\n\nsub_0: assembly {\n        /* \"contracts/saygm.sol\":122:309  contract SayGM is Ownable {\r... */\n      mstore(0x40, 0x80)\n      callvalue\n      dup1\n      iszero\n      tag_1\n      jumpi\n      0x00\n      dup1\n      revert\n    tag_1:\n      pop\n      jumpi(tag_2, lt(calldatasize, 0x04))\n      shr(0xe0, calldataload(0x00))\n      dup1\n      0x17599cc5\n      eq\n      tag_3\n      jumpi\n      dup1\n      0x715018a6\n      eq\n      tag_4\n      jumpi\n      dup1\n      0x7c65d711\n      eq\n      tag_5\n      jumpi\n      dup1\n      0x8da5cb5b\n      eq\n      tag_6\n      jumpi\n      dup1\n      0xf2fde38b\n      eq\n      tag_7\n      jumpi\n    tag_2:\n      0x00\n      dup1\n      revert\n        /* \"contracts/saygm.sol\":272:295  Answer[] public answers */\n    tag_3:\n      tag_8\n      0x04\n      dup1\n      calldatasize\n      sub\n      dup2\n      add\n      swap1\n      tag_9\n      swap2\n      swap1\n      tag_10\n      jump\t// in\n    tag_9:\n      tag_11\n      jump\t// in\n    tag_8:\n      mload(0x40)\n      tag_12\n      swap3\n      swap2\n      swap1\n      tag_13\n      jump\t// in\n    tag_12:\n      mload(0x40)\n      dup1\n      swap2\n      sub\n      swap1\n      return\n        /* \"@openzeppelin/contracts/access/Ownable.sol\":1831:1932  function renounceOwnership() public virtual onlyOwner {... */\n    tag_4:\n      tag_14\n      tag_15\n      jump\t// in\n    tag_14:\n      stop\n        /* \"contracts/saygm.sol\":155:186  string public prompt = \"Say GM\" */\n    tag_5:\n      tag_16\n      tag_17\n      jump\t// in\n    tag_16:\n      mload(0x40)\n      tag_18\n      swap2\n      swap1\n      tag_19\n      jump\t// in\n    tag_18:\n      mload(0x40)\n      dup1\n      swap2\n      sub\n      swap1\n      return\n        /* \"@openzeppelin/contracts/access/Ownable.sol\":1201:1286  function owner() public view virtual returns (address) {... */\n    tag_6:\n      tag_20\n      tag_21\n      jump\t// in\n    tag_20:\n      mload(0x40)\n      tag_22\n      swap2\n      swap1\n      tag_23\n      jump\t// in\n    tag_22:\n      mload(0x40)\n      dup1\n      swap2\n      sub\n      swap1\n      return\n        /* \"@openzeppelin/contracts/access/Ownable.sol\":2081:2279  function transferOwnership(address newOwner) public virtual onlyOwner {... */\n    tag_7:\n      tag_24\n      0x04\n      dup1\n      calldatasize\n      sub\n      dup2\n      add\n      swap1\n      tag_25\n      swap2\n      swap1\n      tag_26\n      jump\t// in\n    tag_25:\n      tag_27\n      jump\t// in\n    tag_24:\n      stop\n        /* \"contracts/saygm.sol\":272:295  Answer[] public answers */\n    tag_11:\n      0x02\n      dup2\n      dup2\n      sload\n      dup2\n      lt\n      tag_28\n      jumpi\n      0x00\n      dup1\n      revert\n    tag_28:\n      swap1\n      0x00\n      mstore\n      keccak256(0x00, 0x20)\n      swap1\n      0x02\n      mul\n      add\n      0x00\n      swap2\n      pop\n      swap1\n      pop\n      dup1\n      0x00\n      add\n      0x00\n      swap1\n      sload\n      swap1\n      0x0100\n      exp\n      swap1\n      div\n      0xffffffffffffffffffffffffffffffffffffffff\n      and\n      swap1\n      dup1\n      0x01\n      add\n      dup1\n      sload\n      tag_30\n      swap1\n      tag_31\n      jump\t// in\n    tag_30:\n      dup1\n      0x1f\n      add\n      0x20\n      dup1\n      swap2\n      div\n      mul\n      0x20\n      add\n      mload(0x40)\n      swap1\n      dup2\n      add\n      0x40\n      mstore\n      dup1\n      swap3\n      swap2\n      swap1\n      dup2\n      dup2\n      mstore\n      0x20\n      add\n      dup3\n      dup1\n      sload\n      tag_32\n      swap1\n      tag_31\n      jump\t// in\n    tag_32:\n      dup1\n      iszero\n      tag_33\n      jumpi\n      dup1\n      0x1f\n      lt\n      tag_34\n      jumpi\n      0x0100\n      dup1\n      dup4\n      sload\n      div\n      mul\n      dup4\n      mstore\n      swap2\n      0x20\n      add\n      swap2\n      jump(tag_33)\n    tag_34:\n      dup3\n      add\n      swap2\n      swap1\n      0x00\n      mstore\n      keccak256(0x00, 0x20)\n      swap1\n    tag_35:\n      dup2\n      sload\n      dup2\n      mstore\n      swap1\n      0x01\n      add\n      swap1\n      0x20\n      add\n      dup1\n      dup4\n      gt\n      tag_35\n      jumpi\n      dup3\n      swap1\n      sub\n      0x1f\n      and\n      dup3\n      add\n      swap2\n    tag_33:\n      pop\n      pop\n      pop\n      pop\n      pop\n      swap1\n      pop\n      dup3\n      jump\t// out\n        /* \"@openzeppelin/contracts/access/Ownable.sol\":1831:1932  function renounceOwnership() public virtual onlyOwner {... */\n    tag_15:\n        /* \"@openzeppelin/contracts/access/Ownable.sol\":1094:1107  _checkOwner() */\n      tag_37\n        /* \"@openzeppelin/contracts/access/Ownable.sol\":1094:1105  _checkOwner */\n      tag_38\n        /* \"@openzeppelin/contracts/access/Ownable.sol\":1094:1107  _checkOwner() */\n      jump\t// in\n    tag_37:\n        /* \"@openzeppelin/contracts/access/Ownable.sol\":1895:1925  _transferOwnership(address(0)) */\n      tag_40\n        /* \"@openzeppelin/contracts/access/Ownable.sol\":1922:1923  0 */\n      0x00\n        /* \"@openzeppelin/contracts/access/Ownable.sol\":1895:1913  _transferOwnership */\n      tag_41\n        /* \"@openzeppelin/contracts/access/Ownable.sol\":1895:1925  _transferOwnership(address(0)) */\n      jump\t// in\n    tag_40:\n        /* \"@openzeppelin/contracts/access/Ownable.sol\":1831:1932  function renounceOwnership() public virtual onlyOwner {... */\n      jump\t// out\n        /* \"contracts/saygm.sol\":155:186  string public prompt = \"Say GM\" */\n    tag_17:\n      0x01\n      dup1\n      sload\n      tag_42\n      swap1\n      tag_31\n      jump\t// in\n    tag_42:\n      dup1\n      0x1f\n      add\n      0x20\n      dup1\n      swap2\n      div\n      mul\n      0x20\n      add\n      mload(0x40)\n      swap1\n      dup2\n      add\n      0x40\n      mstore\n      dup1\n      swap3\n      swap2\n      swap1\n      dup2\n      dup2\n      mstore\n      0x20\n      add\n      dup3\n      dup1\n      sload\n      tag_43\n      swap1\n      tag_31\n      jump\t// in\n    tag_43:\n      dup1\n      iszero\n      tag_44\n      jumpi\n      dup1\n      0x1f\n      lt\n      tag_45\n      jumpi\n      0x0100\n      dup1\n      dup4\n      sload\n      div\n      mul\n      dup4\n      mstore\n      swap2\n      0x20\n      add\n      swap2\n      jump(tag_44)\n    tag_45:\n      dup3\n      add\n      swap2\n      swap1\n      0x00\n      mstore\n      keccak256(0x00, 0x20)\n      swap1\n    tag_46:\n      dup2\n      sload\n      dup2\n      mstore\n      swap1\n      0x01\n      add\n      swap1\n      0x20\n      add\n      dup1\n      dup4\n      gt\n      tag_46\n      jumpi\n      dup3\n      swap1\n      sub\n      0x1f\n      and\n      dup3\n      add\n      swap2\n    tag_44:\n      pop\n      pop\n      pop\n      pop\n      pop\n      dup2\n      jump\t// out\n        /* \"@openzeppelin/contracts/access/Ownable.sol\":1201:1286  function owner() public view virtual returns (address) {... */\n    tag_21:\n        /* \"@openzeppelin/contracts/access/Ownable.sol\":1247:1254  address */\n      0x00\n        /* \"@openzeppelin/contracts/access/Ownable.sol\":1273:1279  _owner */\n      dup1\n      0x00\n      swap1\n      sload\n      swap1\n      0x0100\n      exp\n      swap1\n      div\n      0xffffffffffffffffffffffffffffffffffffffff\n      and\n        /* \"@openzeppelin/contracts/access/Ownable.sol\":1266:1279  return _owner */\n      swap1\n      pop\n        /* \"@openzeppelin/contracts/access/Ownable.sol\":1201:1286  function owner() public view virtual returns (address) {... */\n      swap1\n      jump\t// out\n        /* \"@openzeppelin/contracts/access/Ownable.sol\":2081:2279  function transferOwnership(address newOwner) public virtual onlyOwner {... */\n    tag_27:\n        /* \"@openzeppelin/contracts/access/Ownable.sol\":1094:1107  _checkOwner() */\n      tag_49\n        /* \"@openzeppelin/contracts/access/Ownable.sol\":1094:1105  _checkOwner */\n      tag_38\n        /* \"@openzeppelin/contracts/access/Ownable.sol\":1094:1107  _checkOwner() */\n      jump\t// in\n    tag_49:\n        /* \"@openzeppelin/contracts/access/Ownable.sol\":2189:2190  0 */\n      0x00\n        /* \"@openzeppelin/contracts/access/Ownable.sol\":2169:2191  newOwner != address(0) */\n      0xffffffffffffffffffffffffffffffffffffffff\n      and\n        /* \"@openzeppelin/contracts/access/Ownable.sol\":2169:2177  newOwner */\n      dup2\n        /* \"@openzeppelin/contracts/access/Ownable.sol\":2169:2191  newOwner != address(0) */\n      0xffffffffffffffffffffffffffffffffffffffff\n      and\n      eq\n      iszero\n        /* \"@openzeppelin/contracts/access/Ownable.sol\":2161:2234  require(newOwner != address(0), \"Ownable: new owner is the zero address\") */\n      tag_51\n      jumpi\n      mload(0x40)\n      0x08c379a000000000000000000000000000000000000000000000000000000000\n      dup2\n      mstore\n      0x04\n      add\n      tag_52\n      swap1\n      tag_53\n      jump\t// in\n    tag_52:\n      mload(0x40)\n      dup1\n      swap2\n      sub\n      swap1\n      revert\n    tag_51:\n        /* \"@openzeppelin/contracts/access/Ownable.sol\":2244:2272  _transferOwnership(newOwner) */\n      tag_54\n        /* \"@openzeppelin/contracts/access/Ownable.sol\":2263:2271  newOwner */\n      dup2\n        /* \"@openzeppelin/contracts/access/Ownable.sol\":2244:2262  _transferOwnership */\n      tag_41\n        /* \"@openzeppelin/contracts/access/Ownable.sol\":2244:2272  _transferOwnership(newOwner) */\n      jump\t// in\n    tag_54:\n        /* \"@openzeppelin/contracts/access/Ownable.sol\":2081:2279  function transferOwnership(address newOwner) public virtual onlyOwner {... */\n      pop\n      jump\t// out\n        /* \"@openzeppelin/contracts/access/Ownable.sol\":1359:1489  function _checkOwner() internal view virtual {... */\n    tag_38:\n        /* \"@openzeppelin/contracts/access/Ownable.sol\":1433:1445  _msgSender() */\n      tag_56\n        /* \"@openzeppelin/contracts/access/Ownable.sol\":1433:1443  _msgSender */\n      tag_57\n        /* \"@openzeppelin/contracts/access/Ownable.sol\":1433:1445  _msgSender() */\n      jump\t// in\n    tag_56:\n        /* \"@openzeppelin/contracts/access/Ownable.sol\":1422:1445  owner() == _msgSender() */\n      0xffffffffffffffffffffffffffffffffffffffff\n      and\n        /* \"@openzeppelin/contracts/access/Ownable.sol\":1422:1429  owner() */\n      tag_58\n        /* \"@openzeppelin/contracts/access/Ownable.sol\":1422:1427  owner */\n      tag_21\n        /* \"@openzeppelin/contracts/access/Ownable.sol\":1422:1429  owner() */\n      jump\t// in\n    tag_58:\n        /* \"@openzeppelin/contracts/access/Ownable.sol\":1422:1445  owner() == _msgSender() */\n      0xffffffffffffffffffffffffffffffffffffffff\n      and\n      eq\n        /* \"@openzeppelin/contracts/access/Ownable.sol\":1414:1482  require(owner() == _msgSender(), \"Ownable: caller is not the owner\") */\n      tag_59\n      jumpi\n      mload(0x40)\n      0x08c379a000000000000000000000000000000000000000000000000000000000\n      dup2\n      mstore\n      0x04\n      add\n      tag_60\n      swap1\n      tag_61\n      jump\t// in\n    tag_60:\n      mload(0x40)\n      dup1\n      swap2\n      sub\n      swap1\n      revert\n    tag_59:\n        /* \"@openzeppelin/contracts/access/Ownable.sol\":1359:1489  function _checkOwner() internal view virtual {... */\n      jump\t// out\n        /* \"@openzeppelin/contracts/access/Ownable.sol\":2433:2620  function _transferOwnership(address newOwner) internal virtual {... */\n    tag_41:\n        /* \"@openzeppelin/contracts/access/Ownable.sol\":2506:2522  address oldOwner */\n      0x00\n        /* \"@openzeppelin/contracts/access/Ownable.sol\":2525:2531  _owner */\n      dup1\n      0x00\n      swap1\n      sload\n      swap1\n      0x0100\n      exp\n      swap1\n      div\n      0xffffffffffffffffffffffffffffffffffffffff\n      and\n        /* \"@openzeppelin/contracts/access/Ownable.sol\":2506:2531  address oldOwner = _owner */\n      swap1\n      pop\n        /* \"@openzeppelin/contracts/access/Ownable.sol\":2550:2558  newOwner */\n      dup2\n        /* \"@openzeppelin/contracts/access/Ownable.sol\":2541:2547  _owner */\n      0x00\n      dup1\n        /* \"@openzeppelin/contracts/access/Ownable.sol\":2541:2558  _owner = newOwner */\n      0x0100\n      exp\n      dup2\n      sload\n      dup2\n      0xffffffffffffffffffffffffffffffffffffffff\n      mul\n      not\n      and\n      swap1\n      dup4\n      0xffffffffffffffffffffffffffffffffffffffff\n      and\n      mul\n      or\n      swap1\n      sstore\n      pop\n        /* \"@openzeppelin/contracts/access/Ownable.sol\":2604:2612  newOwner */\n      dup2\n        /* \"@openzeppelin/contracts/access/Ownable.sol\":2573:2613  OwnershipTransferred(oldOwner, newOwner) */\n      0xffffffffffffffffffffffffffffffffffffffff\n      and\n        /* \"@openzeppelin/contracts/access/Ownable.sol\":2594:2602  oldOwner */\n      dup2\n        /* \"@openzeppelin/contracts/access/Ownable.sol\":2573:2613  OwnershipTransferred(oldOwner, newOwner) */\n      0xffffffffffffffffffffffffffffffffffffffff\n      and\n      0x8be0079c531659141344cd1fd0a4f28419497f9722a3daafe3b4186f6b6457e0\n      mload(0x40)\n      mload(0x40)\n      dup1\n      swap2\n      sub\n      swap1\n      log3\n        /* \"@openzeppelin/contracts/access/Ownable.sol\":2496:2620  {... */\n      pop\n        /* \"@openzeppelin/contracts/access/Ownable.sol\":2433:2620  function _transferOwnership(address newOwner) internal virtual {... */\n      pop\n      jump\t// out\n        /* \"@openzeppelin/contracts/utils/Context.sol\":640:736  function _msgSender() internal view virtual returns (address) {... */\n    tag_57:\n        /* \"@openzeppelin/contracts/utils/Context.sol\":693:700  address */\n      0x00\n        /* \"@openzeppelin/contracts/utils/Context.sol\":719:729  msg.sender */\n      caller\n        /* \"@openzeppelin/contracts/utils/Context.sol\":712:729  return msg.sender */\n      swap1\n      pop\n        /* \"@openzeppelin/contracts/utils/Context.sol\":640:736  function _msgSender() internal view virtual returns (address) {... */\n      swap1\n      jump\t// out\n        /* \"#utility.yul\":7:146   */\n    tag_65:\n        /* \"#utility.yul\":53:58   */\n      0x00\n        /* \"#utility.yul\":91:97   */\n      dup2\n        /* \"#utility.yul\":78:98   */\n      calldataload\n        /* \"#utility.yul\":69:98   */\n      swap1\n      pop\n        /* \"#utility.yul\":107:140   */\n      tag_67\n        /* \"#utility.yul\":134:139   */\n      dup2\n        /* \"#utility.yul\":107:140   */\n      tag_68\n      jump\t// in\n    tag_67:\n        /* \"#utility.yul\":7:146   */\n      swap3\n      swap2\n      pop\n      pop\n      jump\t// out\n        /* \"#utility.yul\":152:291   */\n    tag_69:\n        /* \"#utility.yul\":198:203   */\n      0x00\n        /* \"#utility.yul\":236:242   */\n      dup2\n        /* \"#utility.yul\":223:243   */\n      calldataload\n        /* \"#utility.yul\":214:243   */\n      swap1\n      pop\n        /* \"#utility.yul\":252:285   */\n      tag_71\n        /* \"#utility.yul\":279:284   */\n      dup2\n        /* \"#utility.yul\":252:285   */\n      tag_72\n      jump\t// in\n    tag_71:\n        /* \"#utility.yul\":152:291   */\n      swap3\n      swap2\n      pop\n      pop\n      jump\t// out\n        /* \"#utility.yul\":297:626   */\n    tag_26:\n        /* \"#utility.yul\":356:362   */\n      0x00\n        /* \"#utility.yul\":405:407   */\n      0x20\n        /* \"#utility.yul\":393:402   */\n      dup3\n        /* \"#utility.yul\":384:391   */\n      dup5\n        /* \"#utility.yul\":380:403   */\n      sub\n        /* \"#utility.yul\":376:408   */\n      slt\n        /* \"#utility.yul\":373:492   */\n      iszero\n      tag_74\n      jumpi\n        /* \"#utility.yul\":411:490   */\n      tag_75\n      tag_76\n      jump\t// in\n    tag_75:\n        /* \"#utility.yul\":373:492   */\n    tag_74:\n        /* \"#utility.yul\":531:532   */\n      0x00\n        /* \"#utility.yul\":556:609   */\n      tag_77\n        /* \"#utility.yul\":601:608   */\n      dup5\n        /* \"#utility.yul\":592:598   */\n      dup3\n        /* \"#utility.yul\":581:590   */\n      dup6\n        /* \"#utility.yul\":577:599   */\n      add\n        /* \"#utility.yul\":556:609   */\n      tag_65\n      jump\t// in\n    tag_77:\n        /* \"#utility.yul\":546:609   */\n      swap2\n      pop\n        /* \"#utility.yul\":502:619   */\n      pop\n        /* \"#utility.yul\":297:626   */\n      swap3\n      swap2\n      pop\n      pop\n      jump\t// out\n        /* \"#utility.yul\":632:961   */\n    tag_10:\n        /* \"#utility.yul\":691:697   */\n      0x00\n        /* \"#utility.yul\":740:742   */\n      0x20\n        /* \"#utility.yul\":728:737   */\n      dup3\n        /* \"#utility.yul\":719:726   */\n      dup5\n        /* \"#utility.yul\":715:738   */\n      sub\n        /* \"#utility.yul\":711:743   */\n      slt\n        /* \"#utility.yul\":708:827   */\n      iszero\n      tag_79\n      jumpi\n        /* \"#utility.yul\":746:825   */\n      tag_80\n      tag_76\n      jump\t// in\n    tag_80:\n        /* \"#utility.yul\":708:827   */\n    tag_79:\n        /* \"#utility.yul\":866:867   */\n      0x00\n        /* \"#utility.yul\":891:944   */\n      tag_81\n        /* \"#utility.yul\":936:943   */\n      dup5\n        /* \"#utility.yul\":927:933   */\n      dup3\n        /* \"#utility.yul\":916:925   */\n      dup6\n        /* \"#utility.yul\":912:934   */\n      add\n        /* \"#utility.yul\":891:944   */\n      tag_69\n      jump\t// in\n    tag_81:\n        /* \"#utility.yul\":881:944   */\n      swap2\n      pop\n        /* \"#utility.yul\":837:954   */\n      pop\n        /* \"#utility.yul\":632:961   */\n      swap3\n      swap2\n      pop\n      pop\n      jump\t// out\n        /* \"#utility.yul\":967:1085   */\n    tag_82:\n        /* \"#utility.yul\":1054:1078   */\n      tag_84\n        /* \"#utility.yul\":1072:1077   */\n      dup2\n        /* \"#utility.yul\":1054:1078   */\n      tag_85\n      jump\t// in\n    tag_84:\n        /* \"#utility.yul\":1049:1052   */\n      dup3\n        /* \"#utility.yul\":1042:1079   */\n      mstore\n        /* \"#utility.yul\":967:1085   */\n      pop\n      pop\n      jump\t// out\n        /* \"#utility.yul\":1091:1455   */\n    tag_86:\n        /* \"#utility.yul\":1179:1182   */\n      0x00\n        /* \"#utility.yul\":1207:1246   */\n      tag_88\n        /* \"#utility.yul\":1240:1245   */\n      dup3\n        /* \"#utility.yul\":1207:1246   */\n      tag_89\n      jump\t// in\n    tag_88:\n        /* \"#utility.yul\":1262:1333   */\n      tag_90\n        /* \"#utility.yul\":1326:1332   */\n      dup2\n        /* \"#utility.yul\":1321:1324   */\n      dup6\n        /* \"#utility.yul\":1262:1333   */\n      tag_91\n      jump\t// in\n    tag_90:\n        /* \"#utility.yul\":1255:1333   */\n      swap4\n      pop\n        /* \"#utility.yul\":1342:1394   */\n      tag_92\n        /* \"#utility.yul\":1387:1393   */\n      dup2\n        /* \"#utility.yul\":1382:1385   */\n      dup6\n        /* \"#utility.yul\":1375:1379   */\n      0x20\n        /* \"#utility.yul\":1368:1373   */\n      dup7\n        /* \"#utility.yul\":1364:1380   */\n      add\n        /* \"#utility.yul\":1342:1394   */\n      tag_93\n      jump\t// in\n    tag_92:\n        /* \"#utility.yul\":1419:1448   */\n      tag_94\n        /* \"#utility.yul\":1441:1447   */\n      dup2\n        /* \"#utility.yul\":1419:1448   */\n      tag_95\n      jump\t// in\n    tag_94:\n        /* \"#utility.yul\":1414:1417   */\n      dup5\n        /* \"#utility.yul\":1410:1449   */\n      add\n        /* \"#utility.yul\":1403:1449   */\n      swap2\n      pop\n        /* \"#utility.yul\":1183:1455   */\n      pop\n        /* \"#utility.yul\":1091:1455   */\n      swap3\n      swap2\n      pop\n      pop\n      jump\t// out\n        /* \"#utility.yul\":1461:1827   */\n    tag_96:\n        /* \"#utility.yul\":1603:1606   */\n      0x00\n        /* \"#utility.yul\":1624:1691   */\n      tag_98\n        /* \"#utility.yul\":1688:1690   */\n      0x26\n        /* \"#utility.yul\":1683:1686   */\n      dup4\n        /* \"#utility.yul\":1624:1691   */\n      tag_91\n      jump\t// in\n    tag_98:\n        /* \"#utility.yul\":1617:1691   */\n      swap2\n      pop\n        /* \"#utility.yul\":1700:1793   */\n      tag_99\n        /* \"#utility.yul\":1789:1792   */\n      dup3\n        /* \"#utility.yul\":1700:1793   */\n      tag_100\n      jump\t// in\n    tag_99:\n        /* \"#utility.yul\":1818:1820   */\n      0x40\n        /* \"#utility.yul\":1813:1816   */\n      dup3\n        /* \"#utility.yul\":1809:1821   */\n      add\n        /* \"#utility.yul\":1802:1821   */\n      swap1\n      pop\n        /* \"#utility.yul\":1461:1827   */\n      swap2\n      swap1\n      pop\n      jump\t// out\n        /* \"#utility.yul\":1833:2199   */\n    tag_101:\n        /* \"#utility.yul\":1975:1978   */\n      0x00\n        /* \"#utility.yul\":1996:2063   */\n      tag_103\n        /* \"#utility.yul\":2060:2062   */\n      0x20\n        /* \"#utility.yul\":2055:2058   */\n      dup4\n        /* \"#utility.yul\":1996:2063   */\n      tag_91\n      jump\t// in\n    tag_103:\n        /* \"#utility.yul\":1989:2063   */\n      swap2\n      pop\n        /* \"#utility.yul\":2072:2165   */\n      tag_104\n        /* \"#utility.yul\":2161:2164   */\n      dup3\n        /* \"#utility.yul\":2072:2165   */\n      tag_105\n      jump\t// in\n    tag_104:\n        /* \"#utility.yul\":2190:2192   */\n      0x20\n        /* \"#utility.yul\":2185:2188   */\n      dup3\n        /* \"#utility.yul\":2181:2193   */\n      add\n        /* \"#utility.yul\":2174:2193   */\n      swap1\n      pop\n        /* \"#utility.yul\":1833:2199   */\n      swap2\n      swap1\n      pop\n      jump\t// out\n        /* \"#utility.yul\":2205:2427   */\n    tag_23:\n        /* \"#utility.yul\":2298:2302   */\n      0x00\n        /* \"#utility.yul\":2336:2338   */\n      0x20\n        /* \"#utility.yul\":2325:2334   */\n      dup3\n        /* \"#utility.yul\":2321:2339   */\n      add\n        /* \"#utility.yul\":2313:2339   */\n      swap1\n      pop\n        /* \"#utility.yul\":2349:2420   */\n      tag_107\n        /* \"#utility.yul\":2417:2418   */\n      0x00\n        /* \"#utility.yul\":2406:2415   */\n      dup4\n        /* \"#utility.yul\":2402:2419   */\n      add\n        /* \"#utility.yul\":2393:2399   */\n      dup5\n        /* \"#utility.yul\":2349:2420   */\n      tag_82\n      jump\t// in\n    tag_107:\n        /* \"#utility.yul\":2205:2427   */\n      swap3\n      swap2\n      pop\n      pop\n      jump\t// out\n        /* \"#utility.yul\":2433:2856   */\n    tag_13:\n        /* \"#utility.yul\":2574:2578   */\n      0x00\n        /* \"#utility.yul\":2612:2614   */\n      0x40\n        /* \"#utility.yul\":2601:2610   */\n      dup3\n        /* \"#utility.yul\":2597:2615   */\n      add\n        /* \"#utility.yul\":2589:2615   */\n      swap1\n      pop\n        /* \"#utility.yul\":2625:2696   */\n      tag_109\n        /* \"#utility.yul\":2693:2694   */\n      0x00\n        /* \"#utility.yul\":2682:2691   */\n      dup4\n        /* \"#utility.yul\":2678:2695   */\n      add\n        /* \"#utility.yul\":2669:2675   */\n      dup6\n        /* \"#utility.yul\":2625:2696   */\n      tag_82\n      jump\t// in\n    tag_109:\n        /* \"#utility.yul\":2743:2752   */\n      dup2\n        /* \"#utility.yul\":2737:2741   */\n      dup2\n        /* \"#utility.yul\":2733:2753   */\n      sub\n        /* \"#utility.yul\":2728:2730   */\n      0x20\n        /* \"#utility.yul\":2717:2726   */\n      dup4\n        /* \"#utility.yul\":2713:2731   */\n      add\n        /* \"#utility.yul\":2706:2754   */\n      mstore\n        /* \"#utility.yul\":2771:2849   */\n      tag_110\n        /* \"#utility.yul\":2844:2848   */\n      dup2\n        /* \"#utility.yul\":2835:2841   */\n      dup5\n        /* \"#utility.yul\":2771:2849   */\n      tag_86\n      jump\t// in\n    tag_110:\n        /* \"#utility.yul\":2763:2849   */\n      swap1\n      pop\n        /* \"#utility.yul\":2433:2856   */\n      swap4\n      swap3\n      pop\n      pop\n      pop\n      jump\t// out\n        /* \"#utility.yul\":2862:3175   */\n    tag_19:\n        /* \"#utility.yul\":2975:2979   */\n      0x00\n        /* \"#utility.yul\":3013:3015   */\n      0x20\n        /* \"#utility.yul\":3002:3011   */\n      dup3\n        /* \"#utility.yul\":2998:3016   */\n      add\n        /* \"#utility.yul\":2990:3016   */\n      swap1\n      pop\n        /* \"#utility.yul\":3062:3071   */\n      dup2\n        /* \"#utility.yul\":3056:3060   */\n      dup2\n        /* \"#utility.yul\":3052:3072   */\n      sub\n        /* \"#utility.yul\":3048:3049   */\n      0x00\n        /* \"#utility.yul\":3037:3046   */\n      dup4\n        /* \"#utility.yul\":3033:3050   */\n      add\n        /* \"#utility.yul\":3026:3073   */\n      mstore\n        /* \"#utility.yul\":3090:3168   */\n      tag_112\n        /* \"#utility.yul\":3163:3167   */\n      dup2\n        /* \"#utility.yul\":3154:3160   */\n      dup5\n        /* \"#utility.yul\":3090:3168   */\n      tag_86\n      jump\t// in\n    tag_112:\n        /* \"#utility.yul\":3082:3168   */\n      swap1\n      pop\n        /* \"#utility.yul\":2862:3175   */\n      swap3\n      swap2\n      pop\n      pop\n      jump\t// out\n        /* \"#utility.yul\":3181:3600   */\n    tag_53:\n        /* \"#utility.yul\":3347:3351   */\n      0x00\n        /* \"#utility.yul\":3385:3387   */\n      0x20\n        /* \"#utility.yul\":3374:3383   */\n      dup3\n        /* \"#utility.yul\":3370:3388   */\n      add\n        /* \"#utility.yul\":3362:3388   */\n      swap1\n      pop\n        /* \"#utility.yul\":3434:3443   */\n      dup2\n        /* \"#utility.yul\":3428:3432   */\n      dup2\n        /* \"#utility.yul\":3424:3444   */\n      sub\n        /* \"#utility.yul\":3420:3421   */\n      0x00\n        /* \"#utility.yul\":3409:3418   */\n      dup4\n        /* \"#utility.yul\":3405:3422   */\n      add\n        /* \"#utility.yul\":3398:3445   */\n      mstore\n        /* \"#utility.yul\":3462:3593   */\n      tag_114\n        /* \"#utility.yul\":3588:3592   */\n      dup2\n        /* \"#utility.yul\":3462:3593   */\n      tag_96\n      jump\t// in\n    tag_114:\n        /* \"#utility.yul\":3454:3593   */\n      swap1\n      pop\n        /* \"#utility.yul\":3181:3600   */\n      swap2\n      swap1\n      pop\n      jump\t// out\n        /* \"#utility.yul\":3606:4025   */\n    tag_61:\n        /* \"#utility.yul\":3772:3776   */\n      0x00\n        /* \"#utility.yul\":3810:3812   */\n      0x20\n        /* \"#utility.yul\":3799:3808   */\n      dup3\n        /* \"#utility.yul\":3795:3813   */\n      add\n        /* \"#utility.yul\":3787:3813   */\n      swap1\n      pop\n        /* \"#utility.yul\":3859:3868   */\n      dup2\n        /* \"#utility.yul\":3853:3857   */\n      dup2\n        /* \"#utility.yul\":3849:3869   */\n      sub\n        /* \"#utility.yul\":3845:3846   */\n      0x00\n        /* \"#utility.yul\":3834:3843   */\n      dup4\n        /* \"#utility.yul\":3830:3847   */\n      add\n        /* \"#utility.yul\":3823:3870   */\n      mstore\n        /* \"#utility.yul\":3887:4018   */\n      tag_116\n        /* \"#utility.yul\":4013:4017   */\n      dup2\n        /* \"#utility.yul\":3887:4018   */\n      tag_101\n      jump\t// in\n    tag_116:\n        /* \"#utility.yul\":3879:4018   */\n      swap1\n      pop\n        /* \"#utility.yul\":3606:4025   */\n      swap2\n      swap1\n      pop\n      jump\t// out\n        /* \"#utility.yul\":4112:4211   */\n    tag_89:\n        /* \"#utility.yul\":4164:4170   */\n      0x00\n        /* \"#utility.yul\":4198:4203   */\n      dup2\n        /* \"#utility.yul\":4192:4204   */\n      mload\n        /* \"#utility.yul\":4182:4204   */\n      swap1\n      pop\n        /* \"#utility.yul\":4112:4211   */\n      swap2\n      swap1\n      pop\n      jump\t// out\n        /* \"#utility.yul\":4217:4386   */\n    tag_91:\n        /* \"#utility.yul\":4301:4312   */\n      0x00\n        /* \"#utility.yul\":4335:4341   */\n      dup3\n        /* \"#utility.yul\":4330:4333   */\n      dup3\n        /* \"#utility.yul\":4323:4342   */\n      mstore\n        /* \"#utility.yul\":4375:4379   */\n      0x20\n        /* \"#utility.yul\":4370:4373   */\n      dup3\n        /* \"#utility.yul\":4366:4380   */\n      add\n        /* \"#utility.yul\":4351:4380   */\n      swap1\n      pop\n        /* \"#utility.yul\":4217:4386   */\n      swap3\n      swap2\n      pop\n      pop\n      jump\t// out\n        /* \"#utility.yul\":4392:4488   */\n    tag_85:\n        /* \"#utility.yul\":4429:4436   */\n      0x00\n        /* \"#utility.yul\":4458:4482   */\n      tag_122\n        /* \"#utility.yul\":4476:4481   */\n      dup3\n        /* \"#utility.yul\":4458:4482   */\n      tag_123\n      jump\t// in\n    tag_122:\n        /* \"#utility.yul\":4447:4482   */\n      swap1\n      pop\n        /* \"#utility.yul\":4392:4488   */\n      swap2\n      swap1\n      pop\n      jump\t// out\n        /* \"#utility.yul\":4494:4620   */\n    tag_123:\n        /* \"#utility.yul\":4531:4538   */\n      0x00\n        /* \"#utility.yul\":4571:4613   */\n      0xffffffffffffffffffffffffffffffffffffffff\n        /* \"#utility.yul\":4564:4569   */\n      dup3\n        /* \"#utility.yul\":4560:4614   */\n      and\n        /* \"#utility.yul\":4549:4614   */\n      swap1\n      pop\n        /* \"#utility.yul\":4494:4620   */\n      swap2\n      swap1\n      pop\n      jump\t// out\n        /* \"#utility.yul\":4626:4703   */\n    tag_125:\n        /* \"#utility.yul\":4663:4670   */\n      0x00\n        /* \"#utility.yul\":4692:4697   */\n      dup2\n        /* \"#utility.yul\":4681:4697   */\n      swap1\n      pop\n        /* \"#utility.yul\":4626:4703   */\n      swap2\n      swap1\n      pop\n      jump\t// out\n        /* \"#utility.yul\":4709:5016   */\n    tag_93:\n        /* \"#utility.yul\":4777:4778   */\n      0x00\n        /* \"#utility.yul\":4787:4900   */\n    tag_128:\n        /* \"#utility.yul\":4801:4807   */\n      dup4\n        /* \"#utility.yul\":4798:4799   */\n      dup2\n        /* \"#utility.yul\":4795:4808   */\n      lt\n        /* \"#utility.yul\":4787:4900   */\n      iszero\n      tag_130\n      jumpi\n        /* \"#utility.yul\":4886:4887   */\n      dup1\n        /* \"#utility.yul\":4881:4884   */\n      dup3\n        /* \"#utility.yul\":4877:4888   */\n      add\n        /* \"#utility.yul\":4871:4889   */\n      mload\n        /* \"#utility.yul\":4867:4868   */\n      dup2\n        /* \"#utility.yul\":4862:4865   */\n      dup5\n        /* \"#utility.yul\":4858:4869   */\n      add\n        /* \"#utility.yul\":4851:4890   */\n      mstore\n        /* \"#utility.yul\":4823:4825   */\n      0x20\n        /* \"#utility.yul\":4820:4821   */\n      dup2\n        /* \"#utility.yul\":4816:4826   */\n      add\n        /* \"#utility.yul\":4811:4826   */\n      swap1\n      pop\n        /* \"#utility.yul\":4787:4900   */\n      jump(tag_128)\n    tag_130:\n        /* \"#utility.yul\":4918:4924   */\n      dup4\n        /* \"#utility.yul\":4915:4916   */\n      dup2\n        /* \"#utility.yul\":4912:4925   */\n      gt\n        /* \"#utility.yul\":4909:5010   */\n      iszero\n      tag_131\n      jumpi\n        /* \"#utility.yul\":4998:4999   */\n      0x00\n        /* \"#utility.yul\":4989:4995   */\n      dup5\n        /* \"#utility.yul\":4984:4987   */\n      dup5\n        /* \"#utility.yul\":4980:4996   */\n      add\n        /* \"#utility.yul\":4973:5000   */\n      mstore\n        /* \"#utility.yul\":4909:5010   */\n    tag_131:\n        /* \"#utility.yul\":4758:5016   */\n      pop\n        /* \"#utility.yul\":4709:5016   */\n      pop\n      pop\n      pop\n      jump\t// out\n        /* \"#utility.yul\":5022:5342   */\n    tag_31:\n        /* \"#utility.yul\":5066:5072   */\n      0x00\n        /* \"#utility.yul\":5103:5104   */\n      0x02\n        /* \"#utility.yul\":5097:5101   */\n      dup3\n        /* \"#utility.yul\":5093:5105   */\n      div\n        /* \"#utility.yul\":5083:5105   */\n      swap1\n      pop\n        /* \"#utility.yul\":5150:5151   */\n      0x01\n        /* \"#utility.yul\":5144:5148   */\n      dup3\n        /* \"#utility.yul\":5140:5152   */\n      and\n        /* \"#utility.yul\":5171:5189   */\n      dup1\n        /* \"#utility.yul\":5161:5242   */\n      tag_133\n      jumpi\n        /* \"#utility.yul\":5227:5231   */\n      0x7f\n        /* \"#utility.yul\":5219:5225   */\n      dup3\n        /* \"#utility.yul\":5215:5232   */\n      and\n        /* \"#utility.yul\":5205:5232   */\n      swap2\n      pop\n        /* \"#utility.yul\":5161:5242   */\n    tag_133:\n        /* \"#utility.yul\":5289:5291   */\n      0x20\n        /* \"#utility.yul\":5281:5287   */\n      dup3\n        /* \"#utility.yul\":5278:5292   */\n      lt\n        /* \"#utility.yul\":5258:5276   */\n      dup2\n        /* \"#utility.yul\":5255:5293   */\n      eq\n        /* \"#utility.yul\":5252:5336   */\n      iszero\n      tag_134\n      jumpi\n        /* \"#utility.yul\":5308:5326   */\n      tag_135\n      tag_136\n      jump\t// in\n    tag_135:\n        /* \"#utility.yul\":5252:5336   */\n    tag_134:\n        /* \"#utility.yul\":5073:5342   */\n      pop\n        /* \"#utility.yul\":5022:5342   */\n      swap2\n      swap1\n      pop\n      jump\t// out\n        /* \"#utility.yul\":5348:5528   */\n    tag_136:\n        /* \"#utility.yul\":5396:5473   */\n      0x4e487b7100000000000000000000000000000000000000000000000000000000\n        /* \"#utility.yul\":5393:5394   */\n      0x00\n        /* \"#utility.yul\":5386:5474   */\n      mstore\n        /* \"#utility.yul\":5493:5497   */\n      0x22\n        /* \"#utility.yul\":5490:5491   */\n      0x04\n        /* \"#utility.yul\":5483:5498   */\n      mstore\n        /* \"#utility.yul\":5517:5521   */\n      0x24\n        /* \"#utility.yul\":5514:5515   */\n      0x00\n        /* \"#utility.yul\":5507:5522   */\n      revert\n        /* \"#utility.yul\":5657:5774   */\n    tag_76:\n        /* \"#utility.yul\":5766:5767   */\n      0x00\n        /* \"#utility.yul\":5763:5764   */\n      dup1\n        /* \"#utility.yul\":5756:5768   */\n      revert\n        /* \"#utility.yul\":5780:5882   */\n    tag_95:\n        /* \"#utility.yul\":5821:5827   */\n      0x00\n        /* \"#utility.yul\":5872:5874   */\n      0x1f\n        /* \"#utility.yul\":5868:5875   */\n      not\n        /* \"#utility.yul\":5863:5865   */\n      0x1f\n        /* \"#utility.yul\":5856:5861   */\n      dup4\n        /* \"#utility.yul\":5852:5866   */\n      add\n        /* \"#utility.yul\":5848:5876   */\n      and\n        /* \"#utility.yul\":5838:5876   */\n      swap1\n      pop\n        /* \"#utility.yul\":5780:5882   */\n      swap2\n      swap1\n      pop\n      jump\t// out\n        /* \"#utility.yul\":5888:6113   */\n    tag_100:\n        /* \"#utility.yul\":6028:6062   */\n      0x4f776e61626c653a206e6577206f776e657220697320746865207a65726f2061\n        /* \"#utility.yul\":6024:6025   */\n      0x00\n        /* \"#utility.yul\":6016:6022   */\n      dup3\n        /* \"#utility.yul\":6012:6026   */\n      add\n        /* \"#utility.yul\":6005:6063   */\n      mstore\n        /* \"#utility.yul\":6097:6105   */\n      0x6464726573730000000000000000000000000000000000000000000000000000\n        /* \"#utility.yul\":6092:6094   */\n      0x20\n        /* \"#utility.yul\":6084:6090   */\n      dup3\n        /* \"#utility.yul\":6080:6095   */\n      add\n        /* \"#utility.yul\":6073:6106   */\n      mstore\n        /* \"#utility.yul\":5888:6113   */\n      pop\n      jump\t// out\n        /* \"#utility.yul\":6119:6301   */\n    tag_105:\n        /* \"#utility.yul\":6259:6293   */\n      0x4f776e61626c653a2063616c6c6572206973206e6f7420746865206f776e6572\n        /* \"#utility.yul\":6255:6256   */\n      0x00\n        /* \"#utility.yul\":6247:6253   */\n      dup3\n        /* \"#utility.yul\":6243:6257   */\n      add\n        /* \"#utility.yul\":6236:6294   */\n      mstore\n        /* \"#utility.yul\":6119:6301   */\n      pop\n      jump\t// out\n        /* \"#utility.yul\":6307:6429   */\n    tag_68:\n        /* \"#utility.yul\":6380:6404   */\n      tag_145\n        /* \"#utility.yul\":6398:6403   */\n      dup2\n        /* \"#utility.yul\":6380:6404   */\n      tag_85\n      jump\t// in\n    tag_145:\n        /* \"#utility.yul\":6373:6378   */\n      dup2\n        /* \"#utility.yul\":6370:6405   */\n      eq\n        /* \"#utility.yul\":6360:6423   */\n      tag_146\n      jumpi\n        /* \"#utility.yul\":6419:6420   */\n      0x00\n        /* \"#utility.yul\":6416:6417   */\n      dup1\n        /* \"#utility.yul\":6409:6421   */\n      revert\n        /* \"#utility.yul\":6360:6423   */\n    tag_146:\n        /* \"#utility.yul\":6307:6429   */\n      pop\n      jump\t// out\n        /* \"#utility.yul\":6435:6557   */\n    tag_72:\n        /* \"#utility.yul\":6508:6532   */\n      tag_148\n        /* \"#utility.yul\":6526:6531   */\n      dup2\n        /* \"#utility.yul\":6508:6532   */\n      tag_125\n      jump\t// in\n    tag_148:\n        /* \"#utility.yul\":6501:6506   */\n      dup2\n        /* \"#utility.yul\":6498:6533   */\n      eq\n        /* \"#utility.yul\":6488:6551   */\n      tag_149\n      jumpi\n        /* \"#utility.yul\":6547:6548   */\n      0x00\n        /* \"#utility.yul\":6544:6545   */\n      dup1\n        /* \"#utility.yul\":6537:6549   */\n      revert\n        /* \"#utility.yul\":6488:6551   */\n    tag_149:\n        /* \"#utility.yul\":6435:6557   */\n      pop\n      jump\t// out\n\n    auxdata: 0xa2646970667358221220fd2f26b7f9054e20ada051b7f0cb1eea05b5a9b7df6799fba494b1ff0b31584d64736f6c63430008070033\n}\n",
				"bytecode": {
					"linkReferences": {},
					"object": "60806040526040518060400160405280600681526020017f53617920474d00000000000000000000000000000000000000000000000000008152506001908051906020019061004f92919061014a565b5034801561005c57600080fd5b5061007961006e61007e60201b60201c565b61008660201b60201c565b61024e565b600033905090565b60008060009054906101000a900473ffffffffffffffffffffffffffffffffffffffff169050816000806101000a81548173ffffffffffffffffffffffffffffffffffffffff021916908373ffffffffffffffffffffffffffffffffffffffff1602179055508173ffffffffffffffffffffffffffffffffffffffff168173ffffffffffffffffffffffffffffffffffffffff167f8be0079c531659141344cd1fd0a4f28419497f9722a3daafe3b4186f6b6457e060405160405180910390a35050565b828054610156906101ed565b90600052602060002090601f01602090048101928261017857600085556101bf565b82601f1061019157805160ff19168380011785556101bf565b828001600101855582156101bf579182015b828111156101be5782518255916020019190600101906101a3565b5b5090506101cc91906101d0565b5090565b5b808211156101e95760008160009055506001016101d1565b5090565b6000600282049050600182168061020557607f821691505b602082108114156102195761021861021f565b5b50919050565b7f4e487b7100000000000000000000000000000000000000000000000000000000600052602260045260246000fd5b6108018061025d6000396000f3fe608060405234801561001057600080fd5b50600436106100575760003560e01c806317599cc51461005c578063715018a61461008d5780637c65d711146100975780638da5cb5b146100b5578063f2fde38b146100d3575b600080fd5b610076600480360381019061007191906104bb565b6100ef565b604051610084929190610591565b60405180910390f35b6100956101cb565b005b61009f6101df565b6040516100ac91906105c1565b60405180910390f35b6100bd61026d565b6040516100ca9190610576565b60405180910390f35b6100ed60048036038101906100e8919061048e565b610296565b005b600281815481106100ff57600080fd5b90600052602060002090600202016000915090508060000160009054906101000a900473ffffffffffffffffffffffffffffffffffffffff1690806001018054610148906106ae565b80601f0160208091040260200160405190810160405280929190818152602001828054610174906106ae565b80156101c15780601f10610196576101008083540402835291602001916101c1565b820191906000526020600020905b8154815290600101906020018083116101a457829003601f168201915b5050505050905082565b6101d361031a565b6101dd6000610398565b565b600180546101ec906106ae565b80601f0160208091040260200160405190810160405280929190818152602001828054610218906106ae565b80156102655780601f1061023a57610100808354040283529160200191610265565b820191906000526020600020905b81548152906001019060200180831161024857829003601f168201915b505050505081565b60008060009054906101000a900473ffffffffffffffffffffffffffffffffffffffff16905090565b61029e61031a565b600073ffffffffffffffffffffffffffffffffffffffff168173ffffffffffffffffffffffffffffffffffffffff16141561030e576040517f08c379a0000000000000000000000000000000000000000000000000000000008152600401610305906105e3565b60405180910390fd5b61031781610398565b50565b61032261045c565b73ffffffffffffffffffffffffffffffffffffffff1661034061026d565b73ffffffffffffffffffffffffffffffffffffffff1614610396576040517f08c379a000000000000000000000000000000000000000000000000000000000815260040161038d90610603565b60405180910390fd5b565b60008060009054906101000a900473ffffffffffffffffffffffffffffffffffffffff169050816000806101000a81548173ffffffffffffffffffffffffffffffffffffffff021916908373ffffffffffffffffffffffffffffffffffffffff1602179055508173ffffffffffffffffffffffffffffffffffffffff168173ffffffffffffffffffffffffffffffffffffffff167f8be0079c531659141344cd1fd0a4f28419497f9722a3daafe3b4186f6b6457e060405160405180910390a35050565b600033905090565b6000813590506104738161079d565b92915050565b600081359050610488816107b4565b92915050565b6000602082840312156104a4576104a361070f565b5b60006104b284828501610464565b91505092915050565b6000602082840312156104d1576104d061070f565b5b60006104df84828501610479565b91505092915050565b6104f18161063f565b82525050565b600061050282610623565b61050c818561062e565b935061051c81856020860161067b565b61052581610714565b840191505092915050565b600061053d60268361062e565b915061054882610725565b604082019050919050565b600061056060208361062e565b915061056b82610774565b602082019050919050565b600060208201905061058b60008301846104e8565b92915050565b60006040820190506105a660008301856104e8565b81810360208301526105b881846104f7565b90509392505050565b600060208201905081810360008301526105db81846104f7565b905092915050565b600060208201905081810360008301526105fc81610530565b9050919050565b6000602082019050818103600083015261061c81610553565b9050919050565b600081519050919050565b600082825260208201905092915050565b600061064a82610651565b9050919050565b600073ffffffffffffffffffffffffffffffffffffffff82169050919050565b6000819050919050565b60005b8381101561069957808201518184015260208101905061067e565b838111156106a8576000848401525b50505050565b600060028204905060018216806106c657607f821691505b602082108114156106da576106d96106e0565b5b50919050565b7f4e487b7100000000000000000000000000000000000000000000000000000000600052602260045260246000fd5b600080fd5b6000601f19601f8301169050919050565b7f4f776e61626c653a206e6577206f776e657220697320746865207a65726f206160008201527f6464726573730000000000000000000000000000000000000000000000000000602082015250565b7f4f776e61626c653a2063616c6c6572206973206e6f7420746865206f776e6572600082015250565b6107a68161063f565b81146107b157600080fd5b50565b6107bd81610671565b81146107c857600080fd5b5056fea2646970667358221220fd2f26b7f9054e20ada051b7f0cb1eea05b5a9b7df6799fba494b1ff0b31584d64736f6c63430008070033",
					"opcodes": "PUSH1 0x80 PUSH1 0x40 MSTORE PUSH1 0x40 MLOAD DUP1 PUSH1 0x40 ADD PUSH1 0x40 MSTORE DUP1 PUSH1 0x6 DUP2 MSTORE PUSH1 0x20 ADD PUSH32 0x53617920474D0000000000000000000000000000000000000000000000000000 DUP2 MSTORE POP PUSH1 0x1 SWAP1 DUP1 MLOAD SWAP1 PUSH1 0x20 ADD SWAP1 PUSH2 0x4F SWAP3 SWAP2 SWAP1 PUSH2 0x14A JUMP JUMPDEST POP CALLVALUE DUP1 ISZERO PUSH2 0x5C JUMPI PUSH1 0x0 DUP1 REVERT JUMPDEST POP PUSH2 0x79 PUSH2 0x6E PUSH2 0x7E PUSH1 0x20 SHL PUSH1 0x20 SHR JUMP JUMPDEST PUSH2 0x86 PUSH1 0x20 SHL PUSH1 0x20 SHR JUMP JUMPDEST PUSH2 0x24E JUMP JUMPDEST PUSH1 0x0 CALLER SWAP1 POP SWAP1 JUMP JUMPDEST PUSH1 0x0 DUP1 PUSH1 0x0 SWAP1 SLOAD SWAP1 PUSH2 0x100 EXP SWAP1 DIV PUSH20 0xFFFFFFFFFFFFFFFFFFFFFFFFFFFFFFFFFFFFFFFF AND SWAP1 POP DUP2 PUSH1 0x0 DUP1 PUSH2 0x100 EXP DUP2 SLOAD DUP2 PUSH20 0xFFFFFFFFFFFFFFFFFFFFFFFFFFFFFFFFFFFFFFFF MUL NOT AND SWAP1 DUP4 PUSH20 0xFFFFFFFFFFFFFFFFFFFFFFFFFFFFFFFFFFFFFFFF AND MUL OR SWAP1 SSTORE POP DUP2 PUSH20 0xFFFFFFFFFFFFFFFFFFFFFFFFFFFFFFFFFFFFFFFF AND DUP2 PUSH20 0xFFFFFFFFFFFFFFFFFFFFFFFFFFFFFFFFFFFFFFFF AND PUSH32 0x8BE0079C531659141344CD1FD0A4F28419497F9722A3DAAFE3B4186F6B6457E0 PUSH1 0x40 MLOAD PUSH1 0x40 MLOAD DUP1 SWAP2 SUB SWAP1 LOG3 POP POP JUMP JUMPDEST DUP3 DUP1 SLOAD PUSH2 0x156 SWAP1 PUSH2 0x1ED JUMP JUMPDEST SWAP1 PUSH1 0x0 MSTORE PUSH1 0x20 PUSH1 0x0 KECCAK256 SWAP1 PUSH1 0x1F ADD PUSH1 0x20 SWAP1 DIV DUP2 ADD SWAP3 DUP3 PUSH2 0x178 JUMPI PUSH1 0x0 DUP6 SSTORE PUSH2 0x1BF JUMP JUMPDEST DUP3 PUSH1 0x1F LT PUSH2 0x191 JUMPI DUP1 MLOAD PUSH1 0xFF NOT AND DUP4 DUP1 ADD OR DUP6 SSTORE PUSH2 0x1BF JUMP JUMPDEST DUP3 DUP1 ADD PUSH1 0x1 ADD DUP6 SSTORE DUP3 ISZERO PUSH2 0x1BF JUMPI SWAP2 DUP3 ADD JUMPDEST DUP3 DUP2 GT ISZERO PUSH2 0x1BE JUMPI DUP3 MLOAD DUP3 SSTORE SWAP2 PUSH1 0x20 ADD SWAP2 SWAP1 PUSH1 0x1 ADD SWAP1 PUSH2 0x1A3 JUMP JUMPDEST JUMPDEST POP SWAP1 POP PUSH2 0x1CC SWAP2 SWAP1 PUSH2 0x1D0 JUMP JUMPDEST POP SWAP1 JUMP JUMPDEST JUMPDEST DUP1 DUP3 GT ISZERO PUSH2 0x1E9 JUMPI PUSH1 0x0 DUP2 PUSH1 0x0 SWAP1 SSTORE POP PUSH1 0x1 ADD PUSH2 0x1D1 JUMP JUMPDEST POP SWAP1 JUMP JUMPDEST PUSH1 0x0 PUSH1 0x2 DUP3 DIV SWAP1 POP PUSH1 0x1 DUP3 AND DUP1 PUSH2 0x205 JUMPI PUSH1 0x7F DUP3 AND SWAP2 POP JUMPDEST PUSH1 0x20 DUP3 LT DUP2 EQ ISZERO PUSH2 0x219 JUMPI PUSH2 0x218 PUSH2 0x21F JUMP JUMPDEST JUMPDEST POP SWAP2 SWAP1 POP JUMP JUMPDEST PUSH32 0x4E487B7100000000000000000000000000000000000000000000000000000000 PUSH1 0x0 MSTORE PUSH1 0x22 PUSH1 0x4 MSTORE PUSH1 0x24 PUSH1 0x0 REVERT JUMPDEST PUSH2 0x801 DUP1 PUSH2 0x25D PUSH1 0x0 CODECOPY PUSH1 0x0 RETURN INVALID PUSH1 0x80 PUSH1 0x40 MSTORE CALLVALUE DUP1 ISZERO PUSH2 0x10 JUMPI PUSH1 0x0 DUP1 REVERT JUMPDEST POP PUSH1 0x4 CALLDATASIZE LT PUSH2 0x57 JUMPI PUSH1 0x0 CALLDATALOAD PUSH1 0xE0 SHR DUP1 PUSH4 0x17599CC5 EQ PUSH2 0x5C JUMPI DUP1 PUSH4 0x715018A6 EQ PUSH2 0x8D JUMPI DUP1 PUSH4 0x7C65D711 EQ PUSH2 0x97 JUMPI DUP1 PUSH4 0x8DA5CB5B EQ PUSH2 0xB5 JUMPI DUP1 PUSH4 0xF2FDE38B EQ PUSH2 0xD3 JUMPI JUMPDEST PUSH1 0x0 DUP1 REVERT JUMPDEST PUSH2 0x76 PUSH1 0x4 DUP1 CALLDATASIZE SUB DUP2 ADD SWAP1 PUSH2 0x71 SWAP2 SWAP1 PUSH2 0x4BB JUMP JUMPDEST PUSH2 0xEF JUMP JUMPDEST PUSH1 0x40 MLOAD PUSH2 0x84 SWAP3 SWAP2 SWAP1 PUSH2 0x591 JUMP JUMPDEST PUSH1 0x40 MLOAD DUP1 SWAP2 SUB SWAP1 RETURN JUMPDEST PUSH2 0x95 PUSH2 0x1CB JUMP JUMPDEST STOP JUMPDEST PUSH2 0x9F PUSH2 0x1DF JUMP JUMPDEST PUSH1 0x40 MLOAD PUSH2 0xAC SWAP2 SWAP1 PUSH2 0x5C1 JUMP JUMPDEST PUSH1 0x40 MLOAD DUP1 SWAP2 SUB SWAP1 RETURN JUMPDEST PUSH2 0xBD PUSH2 0x26D JUMP JUMPDEST PUSH1 0x40 MLOAD PUSH2 0xCA SWAP2 SWAP1 PUSH2 0x576 JUMP JUMPDEST PUSH1 0x40 MLOAD DUP1 SWAP2 SUB SWAP1 RETURN JUMPDEST PUSH2 0xED PUSH1 0x4 DUP1 CALLDATASIZE SUB DUP2 ADD SWAP1 PUSH2 0xE8 SWAP2 SWAP1 PUSH2 0x48E JUMP JUMPDEST PUSH2 0x296 JUMP JUMPDEST STOP JUMPDEST PUSH1 0x2 DUP2 DUP2 SLOAD DUP2 LT PUSH2 0xFF JUMPI PUSH1 0x0 DUP1 REVERT JUMPDEST SWAP1 PUSH1 0x0 MSTORE PUSH1 0x20 PUSH1 0x0 KECCAK256 SWAP1 PUSH1 0x2 MUL ADD PUSH1 0x0 SWAP2 POP SWAP1 POP DUP1 PUSH1 0x0 ADD PUSH1 0x0 SWAP1 SLOAD SWAP1 PUSH2 0x100 EXP SWAP1 DIV PUSH20 0xFFFFFFFFFFFFFFFFFFFFFFFFFFFFFFFFFFFFFFFF AND SWAP1 DUP1 PUSH1 0x1 ADD DUP1 SLOAD PUSH2 0x148 SWAP1 PUSH2 0x6AE JUMP JUMPDEST DUP1 PUSH1 0x1F ADD PUSH1 0x20 DUP1 SWAP2 DIV MUL PUSH1 0x20 ADD PUSH1 0x40 MLOAD SWAP1 DUP2 ADD PUSH1 0x40 MSTORE DUP1 SWAP3 SWAP2 SWAP1 DUP2 DUP2 MSTORE PUSH1 0x20 ADD DUP3 DUP1 SLOAD PUSH2 0x174 SWAP1 PUSH2 0x6AE JUMP JUMPDEST DUP1 ISZERO PUSH2 0x1C1 JUMPI DUP1 PUSH1 0x1F LT PUSH2 0x196 JUMPI PUSH2 0x100 DUP1 DUP4 SLOAD DIV MUL DUP4 MSTORE SWAP2 PUSH1 0x20 ADD SWAP2 PUSH2 0x1C1 JUMP JUMPDEST DUP3 ADD SWAP2 SWAP1 PUSH1 0x0 MSTORE PUSH1 0x20 PUSH1 0x0 KECCAK256 SWAP1 JUMPDEST DUP2 SLOAD DUP2 MSTORE SWAP1 PUSH1 0x1 ADD SWAP1 PUSH1 0x20 ADD DUP1 DUP4 GT PUSH2 0x1A4 JUMPI DUP3 SWAP1 SUB PUSH1 0x1F AND DUP3 ADD SWAP2 JUMPDEST POP POP POP POP POP SWAP1 POP DUP3 JUMP JUMPDEST PUSH2 0x1D3 PUSH2 0x31A JUMP JUMPDEST PUSH2 0x1DD PUSH1 0x0 PUSH2 0x398 JUMP JUMPDEST JUMP JUMPDEST PUSH1 0x1 DUP1 SLOAD PUSH2 0x1EC SWAP1 PUSH2 0x6AE JUMP JUMPDEST DUP1 PUSH1 0x1F ADD PUSH1 0x20 DUP1 SWAP2 DIV MUL PUSH1 0x20 ADD PUSH1 0x40 MLOAD SWAP1 DUP2 ADD PUSH1 0x40 MSTORE DUP1 SWAP3 SWAP2 SWAP1 DUP2 DUP2 MSTORE PUSH1 0x20 ADD DUP3 DUP1 SLOAD PUSH2 0x218 SWAP1 PUSH2 0x6AE JUMP JUMPDEST DUP1 ISZERO PUSH2 0x265 JUMPI DUP1 PUSH1 0x1F LT PUSH2 0x23A JUMPI PUSH2 0x100 DUP1 DUP4 SLOAD DIV MUL DUP4 MSTORE SWAP2 PUSH1 0x20 ADD SWAP2 PUSH2 0x265 JUMP JUMPDEST DUP3 ADD SWAP2 SWAP1 PUSH1 0x0 MSTORE PUSH1 0x20 PUSH1 0x0 KECCAK256 SWAP1 JUMPDEST DUP2 SLOAD DUP2 MSTORE SWAP1 PUSH1 0x1 ADD SWAP1 PUSH1 0x20 ADD DUP1 DUP4 GT PUSH2 0x248 JUMPI DUP3 SWAP1 SUB PUSH1 0x1F AND DUP3 ADD SWAP2 JUMPDEST POP POP POP POP POP DUP2 JUMP JUMPDEST PUSH1 0x0 DUP1 PUSH1 0x0 SWAP1 SLOAD SWAP1 PUSH2 0x100 EXP SWAP1 DIV PUSH20 0xFFFFFFFFFFFFFFFFFFFFFFFFFFFFFFFFFFFFFFFF AND SWAP1 POP SWAP1 JUMP JUMPDEST PUSH2 0x29E PUSH2 0x31A JUMP JUMPDEST PUSH1 0x0 PUSH20 0xFFFFFFFFFFFFFFFFFFFFFFFFFFFFFFFFFFFFFFFF AND DUP2 PUSH20 0xFFFFFFFFFFFFFFFFFFFFFFFFFFFFFFFFFFFFFFFF AND EQ ISZERO PUSH2 0x30E JUMPI PUSH1 0x40 MLOAD PUSH32 0x8C379A000000000000000000000000000000000000000000000000000000000 DUP2 MSTORE PUSH1 0x4 ADD PUSH2 0x305 SWAP1 PUSH2 0x5E3 JUMP JUMPDEST PUSH1 0x40 MLOAD DUP1 SWAP2 SUB SWAP1 REVERT JUMPDEST PUSH2 0x317 DUP2 PUSH2 0x398 JUMP JUMPDEST POP JUMP JUMPDEST PUSH2 0x322 PUSH2 0x45C JUMP JUMPDEST PUSH20 0xFFFFFFFFFFFFFFFFFFFFFFFFFFFFFFFFFFFFFFFF AND PUSH2 0x340 PUSH2 0x26D JUMP JUMPDEST PUSH20 0xFFFFFFFFFFFFFFFFFFFFFFFFFFFFFFFFFFFFFFFF AND EQ PUSH2 0x396 JUMPI PUSH1 0x40 MLOAD PUSH32 0x8C379A000000000000000000000000000000000000000000000000000000000 DUP2 MSTORE PUSH1 0x4 ADD PUSH2 0x38D SWAP1 PUSH2 0x603 JUMP JUMPDEST PUSH1 0x40 MLOAD DUP1 SWAP2 SUB SWAP1 REVERT JUMPDEST JUMP JUMPDEST PUSH1 0x0 DUP1 PUSH1 0x0 SWAP1 SLOAD SWAP1 PUSH2 0x100 EXP SWAP1 DIV PUSH20 0xFFFFFFFFFFFFFFFFFFFFFFFFFFFFFFFFFFFFFFFF AND SWAP1 POP DUP2 PUSH1 0x0 DUP1 PUSH2 0x100 EXP DUP2 SLOAD DUP2 PUSH20 0xFFFFFFFFFFFFFFFFFFFFFFFFFFFFFFFFFFFFFFFF MUL NOT AND SWAP1 DUP4 PUSH20 0xFFFFFFFFFFFFFFFFFFFFFFFFFFFFFFFFFFFFFFFF AND MUL OR SWAP1 SSTORE POP DUP2 PUSH20 0xFFFFFFFFFFFFFFFFFFFFFFFFFFFFFFFFFFFFFFFF AND DUP2 PUSH20 0xFFFFFFFFFFFFFFFFFFFFFFFFFFFFFFFFFFFFFFFF AND PUSH32 0x8BE0079C531659141344CD1FD0A4F28419497F9722A3DAAFE3B4186F6B6457E0 PUSH1 0x40 MLOAD PUSH1 0x40 MLOAD DUP1 SWAP2 SUB SWAP1 LOG3 POP POP JUMP JUMPDEST PUSH1 0x0 CALLER SWAP1 POP SWAP1 JUMP JUMPDEST PUSH1 0x0 DUP2 CALLDATALOAD SWAP1 POP PUSH2 0x473 DUP2 PUSH2 0x79D JUMP JUMPDEST SWAP3 SWAP2 POP POP JUMP JUMPDEST PUSH1 0x0 DUP2 CALLDATALOAD SWAP1 POP PUSH2 0x488 DUP2 PUSH2 0x7B4 JUMP JUMPDEST SWAP3 SWAP2 POP POP JUMP JUMPDEST PUSH1 0x0 PUSH1 0x20 DUP3 DUP5 SUB SLT ISZERO PUSH2 0x4A4 JUMPI PUSH2 0x4A3 PUSH2 0x70F JUMP JUMPDEST JUMPDEST PUSH1 0x0 PUSH2 0x4B2 DUP5 DUP3 DUP6 ADD PUSH2 0x464 JUMP JUMPDEST SWAP2 POP POP SWAP3 SWAP2 POP POP JUMP JUMPDEST PUSH1 0x0 PUSH1 0x20 DUP3 DUP5 SUB SLT ISZERO PUSH2 0x4D1 JUMPI PUSH2 0x4D0 PUSH2 0x70F JUMP JUMPDEST JUMPDEST PUSH1 0x0 PUSH2 0x4DF DUP5 DUP3 DUP6 ADD PUSH2 0x479 JUMP JUMPDEST SWAP2 POP POP SWAP3 SWAP2 POP POP JUMP JUMPDEST PUSH2 0x4F1 DUP2 PUSH2 0x63F JUMP JUMPDEST DUP3 MSTORE POP POP JUMP JUMPDEST PUSH1 0x0 PUSH2 0x502 DUP3 PUSH2 0x623 JUMP JUMPDEST PUSH2 0x50C DUP2 DUP6 PUSH2 0x62E JUMP JUMPDEST SWAP4 POP PUSH2 0x51C DUP2 DUP6 PUSH1 0x20 DUP7 ADD PUSH2 0x67B JUMP JUMPDEST PUSH2 0x525 DUP2 PUSH2 0x714 JUMP JUMPDEST DUP5 ADD SWAP2 POP POP SWAP3 SWAP2 POP POP JUMP JUMPDEST PUSH1 0x0 PUSH2 0x53D PUSH1 0x26 DUP4 PUSH2 0x62E JUMP JUMPDEST SWAP2 POP PUSH2 0x548 DUP3 PUSH2 0x725 JUMP JUMPDEST PUSH1 0x40 DUP3 ADD SWAP1 POP SWAP2 SWAP1 POP JUMP JUMPDEST PUSH1 0x0 PUSH2 0x560 PUSH1 0x20 DUP4 PUSH2 0x62E JUMP JUMPDEST SWAP2 POP PUSH2 0x56B DUP3 PUSH2 0x774 JUMP JUMPDEST PUSH1 0x20 DUP3 ADD SWAP1 POP SWAP2 SWAP1 POP JUMP JUMPDEST PUSH1 0x0 PUSH1 0x20 DUP3 ADD SWAP1 POP PUSH2 0x58B PUSH1 0x0 DUP4 ADD DUP5 PUSH2 0x4E8 JUMP JUMPDEST SWAP3 SWAP2 POP POP JUMP JUMPDEST PUSH1 0x0 PUSH1 0x40 DUP3 ADD SWAP1 POP PUSH2 0x5A6 PUSH1 0x0 DUP4 ADD DUP6 PUSH2 0x4E8 JUMP JUMPDEST DUP2 DUP2 SUB PUSH1 0x20 DUP4 ADD MSTORE PUSH2 0x5B8 DUP2 DUP5 PUSH2 0x4F7 JUMP JUMPDEST SWAP1 POP SWAP4 SWAP3 POP POP POP JUMP JUMPDEST PUSH1 0x0 PUSH1 0x20 DUP3 ADD SWAP1 POP DUP2 DUP2 SUB PUSH1 0x0 DUP4 ADD MSTORE PUSH2 0x5DB DUP2 DUP5 PUSH2 0x4F7 JUMP JUMPDEST SWAP1 POP SWAP3 SWAP2 POP POP JUMP JUMPDEST PUSH1 0x0 PUSH1 0x20 DUP3 ADD SWAP1 POP DUP2 DUP2 SUB PUSH1 0x0 DUP4 ADD MSTORE PUSH2 0x5FC DUP2 PUSH2 0x530 JUMP JUMPDEST SWAP1 POP SWAP2 SWAP1 POP JUMP JUMPDEST PUSH1 0x0 PUSH1 0x20 DUP3 ADD SWAP1 POP DUP2 DUP2 SUB PUSH1 0x0 DUP4 ADD MSTORE PUSH2 0x61C DUP2 PUSH2 0x553 JUMP JUMPDEST SWAP1 POP SWAP2 SWAP1 POP JUMP JUMPDEST PUSH1 0x0 DUP2 MLOAD SWAP1 POP SWAP2 SWAP1 POP JUMP JUMPDEST PUSH1 0x0 DUP3 DUP3 MSTORE PUSH1 0x20 DUP3 ADD SWAP1 POP SWAP3 SWAP2 POP POP JUMP JUMPDEST PUSH1 0x0 PUSH2 0x64A DUP3 PUSH2 0x651 JUMP JUMPDEST SWAP1 POP SWAP2 SWAP1 POP JUMP JUMPDEST PUSH1 0x0 PUSH20 0xFFFFFFFFFFFFFFFFFFFFFFFFFFFFFFFFFFFFFFFF DUP3 AND SWAP1 POP SWAP2 SWAP1 POP JUMP JUMPDEST PUSH1 0x0 DUP2 SWAP1 POP SWAP2 SWAP1 POP JUMP JUMPDEST PUSH1 0x0 JUMPDEST DUP4 DUP2 LT ISZERO PUSH2 0x699 JUMPI DUP1 DUP3 ADD MLOAD DUP2 DUP5 ADD MSTORE PUSH1 0x20 DUP2 ADD SWAP1 POP PUSH2 0x67E JUMP JUMPDEST DUP4 DUP2 GT ISZERO PUSH2 0x6A8 JUMPI PUSH1 0x0 DUP5 DUP5 ADD MSTORE JUMPDEST POP POP POP POP JUMP JUMPDEST PUSH1 0x0 PUSH1 0x2 DUP3 DIV SWAP1 POP PUSH1 0x1 DUP3 AND DUP1 PUSH2 0x6C6 JUMPI PUSH1 0x7F DUP3 AND SWAP2 POP JUMPDEST PUSH1 0x20 DUP3 LT DUP2 EQ ISZERO PUSH2 0x6DA JUMPI PUSH2 0x6D9 PUSH2 0x6E0 JUMP JUMPDEST JUMPDEST POP SWAP2 SWAP1 POP JUMP JUMPDEST PUSH32 0x4E487B7100000000000000000000000000000000000000000000000000000000 PUSH1 0x0 MSTORE PUSH1 0x22 PUSH1 0x4 MSTORE PUSH1 0x24 PUSH1 0x0 REVERT JUMPDEST PUSH1 0x0 DUP1 REVERT JUMPDEST PUSH1 0x0 PUSH1 0x1F NOT PUSH1 0x1F DUP4 ADD AND SWAP1 POP SWAP2 SWAP1 POP JUMP JUMPDEST PUSH32 0x4F776E61626C653A206E6577206F776E657220697320746865207A65726F2061 PUSH1 0x0 DUP3 ADD MSTORE PUSH32 0x6464726573730000000000000000000000000000000000000000000000000000 PUSH1 0x20 DUP3 ADD MSTORE POP JUMP JUMPDEST PUSH32 0x4F776E61626C653A2063616C6C6572206973206E6F7420746865206F776E6572 PUSH1 0x0 DUP3 ADD MSTORE POP JUMP JUMPDEST PUSH2 0x7A6 DUP2 PUSH2 0x63F JUMP JUMPDEST DUP2 EQ PUSH2 0x7B1 JUMPI PUSH1 0x0 DUP1 REVERT JUMPDEST POP JUMP JUMPDEST PUSH2 0x7BD DUP2 PUSH2 0x671 JUMP JUMPDEST DUP2 EQ PUSH2 0x7C8 JUMPI PUSH1 0x0 DUP1 REVERT JUMPDEST POP JUMP INVALID LOG2 PUSH5 0x6970667358 0x22 SLT KECCAK256 REVERT 0x2F 0x26 0xB7 0xF9 SDIV 0x4E KECCAK256 0xAD LOG0 MLOAD 0xB7 CREATE 0xCB 0x1E 0xEA SDIV 0xB5 0xA9 0xB7 0xDF PUSH8 0x99FBA494B1FF0B31 PC 0x4D PUSH5 0x736F6C6343 STOP ADDMOD SMOD STOP CALLER "
				},
				"gasEstimates": {
					"creation": {
						"codeDepositCost": "409800",
						"executionCost": "infinite",
						"totalCost": "infinite"
					},
					"external": {
						"answers(uint256)": "infinite",
						"owner()": "2566",
						"prompt()": "infinite",
						"renounceOwnership()": "30398",
						"transferOwnership(address)": "30813"
					}
				},
				"methodIdentifiers": {
					"answers(uint256)": "17599cc5",
					"owner()": "8da5cb5b",
					"prompt()": "7c65d711",
					"renounceOwnership()": "715018a6",
					"transferOwnership(address)": "f2fde38b"
				}
			},
			"storageLayout": {
				"storage": [
					{
						"astId": 7,
						"contract": "contracts/saygm.sol:SayGM",
						"label": "_owner",
						"offset": 0,
						"slot": "0",
						"type": "t_address"
					},
					{
						"astId": 142,
						"contract": "contracts/saygm.sol:SayGM",
						"label": "prompt",
						"offset": 0,
						"slot": "1",
						"type": "t_string_storage"
					},
					{
						"astId": 151,
						"contract": "contracts/saygm.sol:SayGM",
						"label": "answers",
						"offset": 0,
						"slot": "2",
						"type": "t_array(t_struct(Answer)147_storage)dyn_storage"
					}
				],
				"types": {
					"t_address": {
						"encoding": "inplace",
						"label": "address",
						"numberOfBytes": "20"
					},
					"t_array(t_struct(Answer)147_storage)dyn_storage": {
						"base": "t_struct(Answer)147_storage",
						"encoding": "dynamic_array",
						"label": "struct SayGM.Answer[]",
						"numberOfBytes": "32"
					},
					"t_string_storage": {
						"encoding": "bytes",
						"label": "string",
						"numberOfBytes": "32"
					},
					"t_struct(Answer)147_storage": {
						"encoding": "inplace",
						"label": "struct SayGM.Answer",
						"members": [
							{
								"astId": 144,
								"contract": "contracts/saygm.sol:SayGM",
								"label": "from",
								"offset": 0,
								"slot": "0",
								"type": "t_address"
							},
							{
								"astId": 146,
								"contract": "contracts/saygm.sol:SayGM",
								"label": "answer",
								"offset": 0,
								"slot": "1",
								"type": "t_string_storage"
							}
						],
						"numberOfBytes": "64"
					}
				}
			},
			"userdoc": {
				"kind": "user",
				"methods": {},
				"version": 1
			}
		}
	}
}